:100000000C9431010C9462010C9462010C94620115
:100010000C9462010C9462010C9462010C946201D4
:100020000C9462010C9462010C9462010C946201C4
:100030000C9462010C9462010C9462010C946201B4
:100040000C9462010C9462010C9462010C946201A4
:100050000C9462010C9462010C9462010C94AC0C3F
:100060000C9462010C94800D0C94560D0C9462015A
:100070000C9462010C9462010C9462010C94620174
:100080000C9462010C9462010C9462010C94620164
:100090000C94200D0C94F60C0C9462010C946201EB
:1000A0000C9462010C9462010C9462010C94620144
:1000B0000C9462010C9462010C9462010C94620134
:1000C0000C9462010C9462010C9462010C94620124
:1000D0000C9462010C9462010C9462010C94620114
:1000E0000C9462010C94F1030C94CA010C94FF016E
:1000F0000C9457030C94B2020C9476020C94E90110
:100100000C9443050C94F1010C9409020C94CE015B
:100110000C94D2010C94A4030C94B3010C94FB0135
:100120000C9405020C94DF010C94D6010C94E21D92
:100130000C9407030C94B60D0C94F7010C94D901A0
:100140000C9415030C94B8010C94E3010C94ED018C
:100150000C9485020C94C10200000A0B02090C0DDC
:100160000E0807030401000000000000000000006A
:10017000000000000000000000000000000000007F
:10018000000000001211100000000000000000003C
:10019000000000000000000000000000000000005F
:1001A0002200250028002B002E003100340002011F
:1001B0000000050108010B010000210024002700B8
:1001C0002A002D0030003300010100000401070166
:1001D0000A010505050507050808080802020202CC
:1001E0000A0A0808040404040101010101010101D3
:1001F0000303030303030303040707070C0C0C0C9E
:100200000C0C0C0C02020202060606060606060686
:100210000B0B0B0B0B0B0B0B010210202008081013
:100220002040102040800201020108040201010266
:10023000040810204080804020100804020180043F
:10024000020180402010080402010804020101029A
:100250000408102040800102040810204080B60DE0
:10026000E21D11241FBECFEFD1E2DEBFCDBF00E003
:100270000CBF2BE0A8EEB9E001C01D92A73DB2076C
:10028000E1F719E0A0E0B2E0EEEAF2E400E00BBF33
:1002900002C007900D92A83EB107D9F711E0C0E364
:1002A000D1E000E006C021970109802FFE010E94E5
:1002B000CA1ECF32D10780E00807A9F70E944A0E74
:1002C0000C9445210C94000090E0FC01E85EFD4F89
:1002D00024918E529E4FFC018491882399F090E0E6
:1002E000880F991FFC01E854FE4FA591B491FC01C1
:1002F000E256FE4F859194918FB7F894EC91E22BE2
:10030000EC938FBF0895282F30E0F901E85AFE4F93
:100310009491F901E85EFD4F44912E523E4FF90150
:100320002491222309F435C0992311F1915092317F
:10033000F8F4E92FF0E08827EF55FE4F8F4F0C942B
:10034000CA1ED201D601B301CA01CE01B801D9013A
:10035000DF01E301E901ED01F101F701FB01B80162
:10036000FF0105020902809180008F778093800051
:10037000E22FF0E0EE0FFF1FE256FE4FA591B49181
:100380008FB7F894EC91611148C040954E234C937F
:100390008FBF0895809180008F7DE8CF809180008D
:1003A000877FE4CF84B58F7784BDE2CF84B58F7D1E
:1003B000FBCF8091B0008F778093B000D9CF809130
:1003C000B0008F7DF9CF809190008F77809390005F
:1003D000CFCF809190008F7DF9CF80919000877F63
:1003E000F5CF8091A0008F778093A000C1CF80913E
:1003F000A0008F7DF9CF8091A000877FF5CF8091FD
:1004000020018F7780932001B3CF809120018F7DD1
:10041000F9CF80912001877FF5CF4E2BB8CF3FB722
:10042000F8948091590A90915A0AA0915B0AB09170
:100430005C0A26B5A89B05C02F3F19F00196A11DA7
:10044000B11D3FBFBA2FA92F982F8827BC01CD011E
:10045000620F711D811D911D42E0660F771F881F7D
:10046000991F4A95D1F708958F929F92AF92BF92AC
:10047000CF92DF92EF92FF920E940F024B015C013C
:1004800080EDC82E87E0D82EE12CF12C0E940F02BF
:10049000681979098A099B09683E734081059105AD
:1004A000A8F321E0C21AD108E108F10888EE880E0D
:1004B00083E0981EA11CB11CC114D104E104F10415
:1004C00029F7FF90EF90DF90CF90BF90AF909F9073
:1004D0008F9008952FB7F8946091550A7091560A3D
:1004E0008091570A9091580A2FBF08950895DB0113
:1004F00014964D915C9115976D917C91DC01ED9175
:10050000FC910280F381E02D1994AF92BF92CF92BB
:10051000DF92EF92FF920F931F93CF93DF936C01C3
:100520007B018B01040F151FEB015E01AE18BF08A4
:10053000C017D10759F06991D601ED91FC91019056
:10054000F081E02DC6011995892B79F7C501DF915E
:10055000CF911F910F91FF90EF90DF90CF90BF90C0
:10056000AF900895FC01538D448D252F30E0842FEA
:1005700090E0821B930B541710F0CF9608950197CB
:100580000895FC01918D828D981761F0A28DAE0FB8
:10059000BF2FB11D5D968C91928D9F5F9F73928F3F
:1005A00090E008958FEF9FEF08950F931F930E949F
:1005B0006A026093020B7093030B8093040B909379
:1005C000050B8AEF9AE00E94C10297FF1DC00E94AE
:1005D0006A020091020B1091030B2091040B3091E1
:1005E000050B601B710B820B930B0091FE0A10919F
:1005F000FF0A2091000B3091010B601771078207F1
:100600009307F8F28FEF9FEF1F910F910895FC0170
:10061000918D828D981731F0828DE80FF11D858DB7
:1006200090E008958FEF9FEF0895FC01918D228D4A
:10063000892F90E0805C9F4F821B91098F739927CF
:1006400008958DE59AE00E94150321E0892B09F4B5
:1006500020E0822F08958AEF9AE00E94150321E09E
:10066000892B09F420E0822F0895FC01A48DA80FA6
:10067000B92FB11DA35ABF4F2C91848D90E00196E4
:100680008F739927848FA689B7892C93A089B18904
:100690008C91837080648C93938D848D981306C0A5
:1006A0000288F389E02D80818F7D80830895EF9209
:1006B000FF920F931F93CF93DF93EC0181E0888F1C
:1006C0009B8D8C8D98131AC0E889F989808185FFEC
:1006D00015C09FB7F894EE89FF896083E889F9898E
:1006E00080818370806480839FBF81E090E0DF9190
:1006F000CF911F910F91FF90EF900895F62E0B8DE3
:1007000010E00F5F1F4F0F731127E02E8C8D8E119D
:100710000CC00FB607FCFACFE889F989808185FF04
:10072000F5CFCE010E943503F1CFEB8DEC0FFD2FFD
:10073000F11DE35AFF4FF0829FB7F8940B8FEA89BF
:10074000FB8980818062CFCFCF93DF93EC01888DCE
:100750008823B9F0AA89BB89E889F9898C9185FD3C
:1007600003C0808186FD0DC00FB607FCF7CF8C91CA
:1007700085FFF2CF808185FFEDCFCE010E9435034A
:10078000E9CFDF91CF91089580E090E0892B29F0A7
:100790000E942B0381110E94000080E090E0892BD1
:1007A00029F00E94210381110E94000080E090E066
:1007B000892B49F080E090E0892B29F00E9400000D
:1007C00081110E94000080E090E0892B49F080E0D8
:1007D00090E0892B29F00E94000081110C94000008
:1007E000089590E080E00895CF93DF93EC0160E0FE
:1007F0008E810E94830161E08E810E94830160E00E
:100800008E810E9483018BE891E00197F1F7DF91DF
:10081000CF910895CF92DF92EF92FF920F931F93A3
:10082000CF93DF936C017C0187E0E80EF11CD0E0F0
:10083000C0E0062F10E0B8010C2E02C07595679538
:100840000A94E2F76170F70181917F010E948301B0
:100850002196C430D10579F7C601DF91CF911F9160
:100860000F91FF90EF90DF90CF900C94F403CF9214
:10087000DF92EF92FF920F931F93CF93DF93EC01E0
:10088000F62E642F8C810E9483018D818F3F19F099
:1008900060E00E9483010F2D10E08F8584FF25C04A
:1008A0006E0187E0C80ED11CF12CE12CB8010E2C92
:1008B00002C0759567950A94E2F76170F60181911F
:1008C0006F010E948301FFEFEF1AFF0A88E0E8162C
:1008D000F10461F7CE01DF91CF911F910F91FF904D
:1008E000EF90DF90CF900C94F403B80184E07595FD
:1008F00067958A95E1F7CE010E940A046F2DCE011B
:10090000DF91CF911F910F91FF90EF90DF90CF90EB
:100910000C940A0440E0682F8BEB9BE00C943704A6
:1009200081E00E948A048BE39FE10197F1F708952B
:10093000CF93DF93823029F49091CA0B9860909303
:10094000CA0B8093CE0B1092CF0B80E48093D00B18
:1009500080E18093D10B80E58093D20B8091BF0B17
:100960000E9464018091C00B8F3F11F00E946401CE
:100970008091C10B0E946401CBEBDBE09E012B5BFD
:100980003B408091CA0B84FD0AC084E090E0219630
:10099000281739073CF48E810E946401EFCF88E06C
:1009A00090E0F5CF8BE39DE00197F1F760E0809157
:1009B000BF0B0E94830160E08091C10B0E94830104
:1009C0008091C00B8F3F19F060E00E9483018091FD
:1009D000CA0B84FD34C063E08BEB9BE00E940A04E9
:1009E000CBE4D6E4CE010197F1F763E08BEB9BE01B
:1009F0000E940A042197F1F763E08BEB9BE00E94D1
:100A00000A0483E592E00197F1F762E08BEB9BE04B
:100A10000E940A048091CA0B80620E948A0484E0CA
:100A20008093CB0B8CE00E948A040E94900482E0A9
:100A30008093CC0B86E0DF91CF910C948A04806286
:100A40000E948A048BE496E40197F1F78091CA0B27
:100A500080620E948A0483E592E00197F1F7809119
:100A6000CA0B80620E948A04D5CF9091CE0B891761
:100A700010F08FEF890FE82FF0E0E554F44F8489F0
:100A800080680C948A0441E00E94370481E090E081
:100A90000895CF93DF93FC012481358142175307DA
:100AA00088F4C081D181FB0160817181CE01840F06
:100AB000951F0E942B21009729F08C1B9D0BDF9125
:100AC000CF9108958FEF9FEFFACF2F923F924F92E1
:100AD0005F926F927F928F929F92AF92BF92CF92CE
:100AE000DF92EF92FF920F931F93CF93DF9360906B
:100AF000A10B7090A20B6114710409F410C1FC01E8
:100B0000848095808114910409F409C18B017C01D2
:100B1000FB01C480D580C818D908C0919D0BD09125
:100B20009E0BC114D104B9F4F70160817181CE012B
:100B30000E942B21EC01009709F4F1C0F8016081BB
:100B40007181448155810E94E720F801848195815B
:100B5000C80FD91FE9CFD7FC10C0FC0140805180DD
:100B60005301CE01B2010E942B21009709F44CC021
:100B7000880D991DAC0CBD1CF5CF5E01F70160819D
:100B80007181CE010E942B213C01009739F14C016B
:100B90008C1A9D0AA401BE01C5010E94E720A80C81
:100BA000B91CF8016081718144815581C5010E94A1
:100BB000E720F80184819581A80EB91EF701C48150
:100BC000D581C60DD71D8091A10B9091A20B8C0DE4
:100BD0009D1D9093A20B8093A10BD0CFBE01C501A8
:100BE000DF91CF911F910F91FF90EF90DF90CF9009
:100BF000BF90AF909F908F907F906F905F904F903D
:100C00003F902F900C9416216A147B0409F487C03E
:100C100080919F0B9091A00B8A159B0588F4B501DC
:100C20006F5F7F4FCE010E94FE1F009709F477C0CF
:100C300090939E0B80939D0BB092A00BA0929F0B64
:100C4000C091A10BD091A20B2197D7FD68C04E0196
:100C5000F701448055804114510409F460C0A0900C
:100C6000A10BB090A20BA114B10409F458C0A414B4
:100C7000B50408F454C0CA15DB0520F04501F1E0C5
:100C80008F1A910860909D0B70909E0BC301CFEF5F
:100C9000DFEF1301280C391C2816390688F0F701FC
:100CA000608171810E942B21009751F09C012619CF
:100CB00037098216930608F49E010196E901ECCFEC
:100CC000D7FD2DC04C0E5D1EC301840D951DA501E1
:100CD00044195509BC018C0D9D1D0E94F020809186
:100CE000A10B9091A20B8C0D9D1D9093A20B809354
:100CF000A10B20919D0B30919E0B820F931FFC0145
:100D0000108280919D0B90919E0BF8016081718102
:100D1000448155818C0F9D1F0E94E72095CFDF9164
:100D2000CF911F910F91FF90EF90DF90CF90BF90E8
:100D3000AF909F908F907F906F905F904F903F907B
:100D40002F9008950F931F93CF93DF93EC01888129
:100D50009981009759F02A813B812617370730F097
:100D600081E0DF91CF911F910F9108958B016F5F0B
:100D70007F4F0E94FE1F009759F0998388831B8341
:100D80000A832C813D81232B59F7FC011082E8CF87
:100D900080E0E7CFEF92FF920F931F93CF93DF9303
:100DA0006115710541F480E0DF91CF911F910F91A2
:100DB000FF90EF90089541155105B1F07B01EC01D2
:100DC0000C811D81040F151FB8010E94A206882303
:100DD00051F3288139818C819D81B701820F931F46
:100DE0000E9416211D830C8381E0DECFFB0144812C
:100DF0005581608171810C94CA06FC012481358182
:100E0000232B39F421E0FB018081882349F020E085
:100E100007C0808191810E940D2121E0892BB9F7C3
:100E2000822F0895FB0101900020E9F73197AF016F
:100E3000461B570B0C94CA06FB0101900020E9F7F2
:100E40003197AF01461B570BDC01ED91FC910280FD
:100E5000F381E02D1994CF93DF93BC018AEF9AE0E0
:100E60000E947702EC0162E372E08AEF9AE00E944E
:100E70001C078C0F9D1FDF91CF910895CF93DF93B7
:100E8000BC018AEF9AE00E941C07EC0162E372E069
:100E90008AEF9AE00E941C078C0F9D1FDF91CF9173
:100EA000089561E08CE10E94830161E08DE10E9480
:100EB000830161E085E20E94830161E084E20E9497
:100EC000830161E083E20E948301EBE4FAE0118296
:100ED00012821382148210924A0A85E392E00C94E3
:100EE0003E07FC0180819181009711F00C94FA1D5E
:100EF00060E070E0CB010895AF92BF92CF92DF9295
:100F0000EF92FF920F931F93CF93DF93DC01CD906D
:100F1000DC901197C114D10439F01496CD91DC9175
:100F20008C017601209761F4DF91CF911F910F9191
:100F3000FF90EF90DF90CF90BF90AF900895750134
:100F40005701BFEFAB1ABB0AF7018081082E000CD6
:100F5000990B0E947D1E892B91F72197CC0DDD1DE9
:100F60008881082E000C990B0E947D1E892B29F088
:100F7000CE15DF0510F02197F3CFAE014F5F5F4F25
:100F80004E195F09D80115965C934E931497CE14B1
:100F9000DF0420F4B701C6010E94E720D801ED91DB
:100FA000FC91119714968D919C91E80FF91F108276
:100FB000BBCFCF93DF93FC01C081D181209761F03B
:100FC0008991882349F0082E000C990B0E94DF209C
:100FD000FE0131978083F4CFDF91CF910895CF93B5
:100FE000DF93FC01248135814217530788F4C081C7
:100FF000D181062E000C770BCE01840F951F0E9425
:101000000221009729F08C1B9D0BDF91CF91089551
:101010008FEF9FEFFACFFB0144815581FC012481C2
:1010200035812417350778F080819181009759F038
:10103000FB01608171816115710529F00E941D21FC
:1010400021E0892B09F020E0822F08950F931F9350
:10105000CF93DF938C01EB01FC018081918100979C
:10106000E1F06881798161157105A9F042815381B0
:101070002C813D814217530770F00E9416218C810C
:101080009D81F801958384831D821C82DF91CF911D
:101090001F910F9108950E94751F88819981F80111
:1010A000918380838A819B81938382838C819D81BC
:1010B00095838483198218821B821A82E5CFCF938D
:1010C000DF93EC0188819981009711F00E94751FD0
:1010D000198218821D821C821B821A82DF91CF9195
:1010E0000895CF93DF93EC01FB0101900020E9F715
:1010F0003197AF01461B570B0E94CA06811103C0EE
:10110000CE010E945F08CE01DF91CF910895CF9369
:10111000DF93EC01FB0144815581608171810E9464
:10112000CA06811103C0CE010E945F08CE01DF9183
:10113000CF910895EF92FF920F931F93CF93DF9378
:10114000EC017B018A01BA010E94A20681110BC049
:10115000CE010E945F08CE01DF91CF911F910F91C8
:10116000FF90EF9008951D830C83B70188819981CA
:101170000E941621F0CFFB0101900020E9F7319782
:10118000AF01461B570B0C949A080F931F93CF93F4
:10119000DF93CDB7DEB762970FB6F894DEBF0FBE10
:1011A000CDBF8C01CB01F801118210821382128213
:1011B000158214824AE0BE016F5F7F4F0E94211E9C
:1011C000BE016F5F7F4FC8010E94BB0862960FB6D9
:1011D000F894DEBF0FBECDBFDF91CF911F910F916D
:1011E00008950F931F93CF93DF93CDB7DEB7A197E9
:1011F0000FB6F894DEBF0FBECDBF8C01CB01BA0194
:10120000F8011182108213821282158214822AE060
:10121000AE014F5F5F4F0E94411EBE016F5F7F4F67
:10122000C8010E94BB08A1960FB6F894DEBF0FBE9E
:10123000CDBFDF91CF911F910F910895CF93DF9391
:10124000EC01FB018617970749F0608171816115F8
:10125000710541F0448155810E949A08CE01DF91C9
:10126000CF9108950E945F08F9CFFC01118210828E
:1012700013821282158214820C941E09FC011182C1
:1012800010821382128215821482FB0101900020C9
:10129000E9F73197AF01461B570B0C949A08AF92B0
:1012A000BF92CF92DF92EF92FF920F931F93CF9353
:1012B000DF936C015B017A0189012417350720F463
:1012C0008F2D7901042F182F64E372E0C6010E946C
:1012D0003E09D5011496CD91DC91EC16FD06E0F4A3
:1012E0000C171D0708F4E801D501ED91FC91119749
:1012F000EC0FFD1F108110826D917C916E0D7F1D92
:10130000C60161157105A1F00E94BB08F50180813D
:101310009181C80FD91F1883C601DF91CF911F910A
:101320000F91FF90EF90DF90CF90BF90AF90089516
:101330000E945F08EBCFFC0180819181009711F042
:101340000C94751F0895EF92FF920F931F93CF9304
:10135000DF9300D000D0CDB7DEB77C018B010E94B7
:10136000900480E00E94350520E130E050E040E04C
:10137000B701CE0101960E944F09BE016F5F7F4FFA
:101380008BEB9BE00E947702CE0101960E949B09A5
:1013900081E00E94350520E130E050E040E0B801F6
:1013A000CE0101960E944F09BE016F5F7F4F8BEB0C
:1013B0009BE00E947702CE0101960E949B0926962F
:1013C0000FB6F894DEBF0FBECDBFDF91CF911F9156
:1013D0000F91FF90EF9008950F931F93CF93DF939A
:1013E000CDB7DEB768970FB6F894DEBF0FBECDBF9E
:1013F0008C016091020270910302CE010D960E9451
:10140000C508809102029091030264E372E00A979A
:1014100014F46CE374E0CE0101960E943E09BE0113
:10142000635F7F4FCE0101960E948708BC01CE0109
:1014300007960E943509CE0101960E949B09CE01B4
:101440000D960E949B096091520A7091530ACE0139
:1014500043960E94C5088091520A9091530A64E312
:1014600072E00A9714F46CE374E0CE010D960E94CA
:101470003E09BE016D5E7F4FCE010D960E9487082A
:10148000BC01CE0101960E943509CE010D960E9445
:101490009B09CE0143960E949B09609100027091C6
:1014A0000102CE0143960E94C508BE01695F7F4FCD
:1014B000CE010D960E94350960E677E0CE010D96CB
:1014C0000E947108BE016F5F7F4F0E9487086CE425
:1014D00072E00E947108BE016D5E7F4F0E94870816
:1014E00065EE73E00E947108BC01C8010E943509D5
:1014F000CE010D960E949B09CE0143960E949B0946
:10150000CE0101960E949B09CE0107960E949B097D
:10151000C80168960FB6F894DEBF0FBECDBFDF914D
:10152000CF911F910F910895CF92DF92EF92FF928A
:10153000CF93DF93CDB7DEB762970FB6F894DEBFD7
:101540000FBECDBF61E083E20E94830110924A0A80
:101550000E946A02C090F709D090F809E090F9095A
:10156000F090FA096C197D098E099F0928EE33E085
:1015700040E050E00E94A81E8091FB099091FC0978
:10158000A091FD09B091FE09820F931FA41FB51F02
:101590008093FB099093FC09A093FD09B093FE0989
:1015A00083E692E00E943E076091FB097091FC097E
:1015B0008091FD099091FE0920E1C22E2EE0D22EED
:1015C000E12CF12CA70196010E94A81E2CE330E02B
:1015D00040E050E00E94A81EBA01A901CE010D967C
:1015E0000E94F1086091FB097091FC098091FD094E
:1015F0009091FE09A70196010E94A81EBA01A901B7
:10160000CE0107960E94F10861E772E0CE010196D3
:101610000E943E09BE01695F7F4FCE0101960E9484
:1016200087086FE772E00E947108BE01635F7F4F19
:101630000E94870862E872E00E9471080E942B07EE
:10164000CE0101960E949B09CE0107960E949B093C
:10165000CE010D960E949B09CE0107960E94EC09CF
:1016600063E672E0CE0101960E943E09BE01695F09
:101670007F4FCE0101960E94A309CE0101960E94E0
:101680009B09CE0107960E949B0962960FB6F894BB
:10169000DEBF0FBECDBFDF91CF91FF90EF90DF9007
:1016A000CF9008950F931F93CF93DF93CDB7DEB7FD
:1016B000A2970FB6F894DEBF0FBECDBF8C018AE0B3
:1016C000EAE0F2E0DE01119601900D928A95E1F7D1
:1016D000F801EE0FFF1F81E090E08C0F9D1FE80FD7
:1016E000F91F61E080810E948301F801E55BF54FFD
:1016F0001082B801CE0141960E94C50866E872E0EA
:10170000CE010B960E943E09BE016F5E7F4FCE0157
:101710000B960E9487086DE872E00E9471080E9493
:101720002B07CE010B960E949B09CE0141960E9489
:101730009B09CE014D960E94EC09B801CE0141965D
:101740000E94C50866E872E0CE010B960E943E0931
:10175000BE016F5E7F4FCE010B960E9487086DE839
:1017600072E00E947108BC01CE0147960E943509C3
:10177000BE01635E7F4FCE0147960E94A309CE0152
:1017800047960E949B09CE010B960E949B09CE01B1
:1017900041960E949B09CE014D960E949B09A296FC
:1017A0000FB6F894DEBF0FBECDBFDF91CF911F9172
:1017B0000F9108950F931F93CF93DF93CDB7DEB7AB
:1017C000A2970FB6F894DEBF0FBECDBF8C018AE0A2
:1017D000EAE0F2E0DE01119601900D928A95E1F7C0
:1017E000F801EE0FFF1F81E090E08C0F9D1FE80FC6
:1017F000F91F60E080810E948301F801E55BF54FED
:1018000081E08083B801CE0141960E94C50866E858
:1018100072E0CE010B960E943E09BE016F5E7F4FC3
:10182000CE010B960E94870865E972E00E9471085C
:101830000E942B07CE010B960E949B09CE01419678
:101840000E949B09CE014D960E94EC09B801CE0181
:1018500041960E94C50866E872E0CE010B960E9490
:101860003E09BE016F5E7F4FCE010B960E94870836
:1018700065E972E00E947108BC01CE0147960E94A2
:101880003509BE01635E7F4FCE0147960E94A309D2
:10189000CE0147960E949B09CE010B960E949B09A0
:1018A000CE0141960E949B09CE014D960E949B0954
:1018B000A2960FB6F894DEBF0FBECDBFDF91CF91D9
:1018C0001F910F910895EF92FF920F931F93CF9363
:1018D000DF9300D000D0CDB7DEB77C018B016EE97D
:1018E00072E0CE0101960E943E09B701CE01019639
:1018F0000E94870862E276E00E947108B8010E94A7
:1019000087080E942B07CE0101960E949B096BEA73
:1019100072E0CE0101960E943E09B701CE01019608
:101920000E9487086EEB72E00E947108B8010E9465
:1019300087080E942B07CE0101960E949B092696DC
:101940000FB6F894DEBF0FBECDBFDF91CF911F91D0
:101950000F91FF90EF9008951F920F920FB60F9284
:1019600011242F933F938F939F93AF93BF938091B5
:10197000550A9091560AA091570AB091580A309191
:10198000540A23E0230F2D3758F50196A11DB11DF0
:101990002093540A8093550A9093560AA093570AAD
:1019A000B093580A8091590A90915A0AA0915B0A03
:1019B000B0915C0A0196A11DB11D8093590A9093C4
:1019C0005A0AA0935B0AB0935C0ABF91AF919F91B2
:1019D0008F913F912F910F900FBE0F901F901895F0
:1019E00026E8230F0296A11DB11DD2CF1F920F92A0
:1019F0000FB60F9211240BB60F922F933F934F9374
:101A00005F936F937F938F939F93AF93BF93EF9366
:101A1000FF938DE59AE00E943503FF91EF91BF910E
:101A2000AF919F918F917F916F915F914F913F9176
:101A30002F910F900BBE0F900FBE0F901F90189517
:101A40001F920F920FB60F9211240BB60F922F9385
:101A50008F939F93EF93FF93E0916D0AF0916E0A3D
:101A60008081E091730AF091740A82FD1DC090811B
:101A70008091760A8F5F8F732091770A821741F0E9
:101A8000E091760AF0E0E35AF54F958F8093760A5D
:101A9000FF91EF919F918F912F910F900BBE0F901F
:101AA0000FBE0F901F9018958081F2CF1F920F925A
:101AB0000FB60F9211240BB60F922F933F934F93B3
:101AC0005F936F937F938F939F93AF93BF93EF93A6
:101AD000FF938AEF9AE00E943503FF91EF91BF9147
:101AE000AF919F918F917F916F915F914F913F91B6
:101AF0002F910F900BBE0F900FBE0F901F90189557
:101B00001F920F920FB60F9211240BB60F922F93C4
:101B10008F939F93EF93FF93E0910A0BF0910B0B40
:101B20008081E091100BF091110B82FD1DC090811E
:101B30008091130B8F5F8F732091140B821741F0EC
:101B4000E091130BF0E0E650F54F958F8093130B67
:101B5000FF91EF919F918F912F910F900BBE0F905E
:101B60000FBE0F901F9018958081F2CFEDE5FAE03F
:101B70001382128248EE53E060E070E044835583A4
:101B80006683778388E192E0918380832DEC30E057
:101B9000358724872CEC30E03787268728EC30E027
:101BA000318B208B29EC30E0338B228B2AEC30E018
:101BB000358B248B2EEC30E0378B268B118E128EDA
:101BC000138E148EEAEFFAE0138212824483558357
:101BD000668377839183808385EC90E09587848703
:101BE00084EC90E09787868780EC90E0918B808BE7
:101BF00081EC90E0938B828B82EC90E0958B848BD0
:101C000086EC90E0978B868B118E128E138E148E3D
:101C1000EBEBFBE0138212828AE292E091838083F5
:101C200086E184838FEF858387E1868388E18783DC
:101C300089E180878AE181878BE182871386148618
:101C400015861686178681E00E94980463EC72E080
:101C500089EA9BE00E943E0960ED72E08FEA9BE01A
:101C60000E943E096DED72E085EB9BE00E943E090B
:101C700064E372E083EA9BE00E943E0964E372E061
:101C80008DE99BE00E943E0964E372E087E99BE0F6
:101C90000C943E09CF93DF93CDB7DEB7E6970FB62E
:101CA000F894DEBF0FBECDBF789484B5826084BD4A
:101CB00084B5816084BD85B5826085BD85B5816050
:101CC00085BD80916E00816080936E0010928100CE
:101CD0008091810082608093810080918100816089
:101CE000809381008091800081608093800080914A
:101CF000B10084608093B1008091B00081608093D6
:101D0000B000809191008260809391008091910059
:101D10008160809391008091900081608093900019
:101D20008091A10082608093A1008091A1008160D8
:101D30008093A1008091A00081608093A000809199
:101D40002101826080932101809121018160809333
:101D500021018091200181608093200180917A008F
:101D6000846080937A0080917A00826080937A0008
:101D700080917A00816080937A0080917A008068F7
:101D800080937A001092C100E0910A0BF0910B0B46
:101D900082E08083E091060BF091070B1082E091C6
:101DA000080BF091090B8FEC80831092120BE091DD
:101DB0000E0BF0910F0B86E08083E0910C0BF091FD
:101DC0000D0B808180618083E0910C0BF0910D0BF5
:101DD000808188608083E0910C0BF0910D0B8081F5
:101DE00080688083E0910C0BF0910D0B80818F7DDA
:101DF000808386EF92E00E943E078CE10E9464019E
:101E00008DE10E94640185E20E94640184E20E94E7
:101E1000640183E20E9464018DE00E94640182E01B
:101E20000E9498040E94900480E00E94350561E2BF
:101E300073E08BEB9BE00E941C0781E00E9435055C
:101E400063E373E08BEB9BE00E941C070E9434026B
:101E50000E94510780E493E00E943E073FEF232E4B
:101E600039E0332E8FEF9FEFF1011686158A938F9D
:101E7000828FFEE02F0E311C27E322162AE0320665
:101E800099F765E673E0CE0101960E943E0964E78A
:101E900073E0CE0107960E943E09BE016F5F7F4F3F
:101EA000CE0107960E94A309CE0107960E949B09C6
:101EB000CE0101960E949B0981E893E00E943E07B3
:101EC00082EA93E00E943E0748EB5BE060E070E04E
:101ED000CE0101960E94F10867EE73E0CE010796ED
:101EE0000E943E09BE016F5F7F4FCE0107960E94A0
:101EF00087086AE174E00E9471080E942B07CE01F6
:101F000007960E949B09CE0101960E949B098EE3D1
:101F100094E00E943E0763EC72E083EA9BE00E943B
:101F2000BB080E946A026093E8097093E9098093F4
:101F3000EA099093EB0988E794E00E943E070E942B
:101F40006A020E946A020E946A026093EC0970931E
:101F5000ED098093EE099093EF090E946A020091C7
:101F6000E8091091E9092091EA093091EB09601B19
:101F7000710B820B930B683B7B4081059105B8F098
:101F80000E946A026093E8097093E9098093EA0964
:101F90009093EB098091520A9091530A01968C33E9
:101FA00091050CF047C29093530A8093520A0E9405
:101FB0006A020091EC091091ED092091EE0930912F
:101FC000EF09601B710B820B930B683E7340810518
:101FD000910508F458C10E946A026093EC0970935D
:101FE000ED098093EE099093EF092FEFA22E29E0DF
:101FF000B22E01E010E0F5018589882309F483C041
:10200000A389B48928EB3BE00E94D21E6B017C01BE
:102010000E946A02F50146885788608C718C6419A9
:102020007509860997096C157D058E059F0508F4CD
:102030006AC0C8010E94520BF501158AB801CE0191
:1020400007960E94C50865EA74E0CE0101960E94D9
:102050003E09BE01695F7F4FCE0101960E9487084D
:102060006CEA74E00E9471080E942B07CE01019671
:102070000E949B09CE0107960E949B09CE014396C0
:102080000E94EC09B801CE010D960E94C50866E8D1
:1020900072E0CE0107960E943E09BE01635F7F4F4A
:1020A000CE0107960E94870865ED74E00E947108D2
:1020B000BE016D5E7F4F0E948708BC01CE0149962C
:1020C0000E94350969EA7BE0CE0101960E9435093C
:1020D000BE01675E7F4FCE0101960E94630CCE0168
:1020E00001960E949B09CE0149960E949B09CE0150
:1020F00007960E949B09CE010D960E949B09CE0176
:1021000043960E949B090F5F1F4FFEE0AF0EB11C6C
:102110000530110509F06FCFEFEFF9E080E096850B
:102120009111892F3E962E163F06C9F7882309F490
:10213000AAC08090020290900302A090520AB09030
:10214000530AC0900002D09001020FEF19E0EE2474
:10215000E394F12C77247394F8018685882309F49D
:1021600088C08589811185C0828D938DC816D90656
:1021700009F47FC0878590898816990609F079C08F
:1021800081899289A816B90609F073C0C7010E9417
:10219000DA0BF801758A0E946A02F801668B778B68
:1021A000808F918FD38EC28EB701CE0107960E9489
:1021B000C50865EA74E0CE0101960E943E09BE01A1
:1021C000695F7F4FCE0101960E94870864E075E049
:1021D0000E9471080E942B07CE0101960E949B0964
:1021E000CE0107960E949B09CE0143960E94EC09FE
:1021F000B701CE010D960E94C50866E872E0CE01D7
:1022000007960E943E09BE01635F7F4FCE0107968D
:102210000E94870861E275E00E947108BE016D5E50
:102220007F4F0E948708BC01CE0149960E94350964
:1022300069EA7BE0CE0101960E943509BE01675E26
:102240007F4FCE0101960E94630CCE0101960E9441
:102250009B09CE0149960E949B09CE0107960E94D8
:102260009B09CE010D960E949B09CE0143960E94C8
:102270009B09FFEFEF1AFF0A025F1F4F25E0E216EE
:10228000F10409F069CF0E946A020091F1091091EE
:10229000F2092091F3093091F409601B710B820B54
:1022A000930B693E73408105910598F06091F009A8
:1022B00081E068276093F0098DE00E9483010E940D
:1022C0006A026093F1097093F2098093F309909385
:1022D000F40980914A0A882309F48BC00E946A029B
:1022E0000091F7091091F8092091F9093091FA0944
:1022F000601B710B820B930B61387E4E86439105F8
:1023000008F477C08DE495E00E943E070E94940A8D
:1023100060E775E0CE0143960E943E0961E975E0F1
:10232000CE0101960E943E09BE016D5E7F4FCE0137
:1023300001960E9487080E942B07CE0101960E94F9
:102340009B0920E130E050E040E0BE016D5E7F4F30
:10235000CE0101960E944F096AE975E0CE01079609
:102360000E943E09BE016F5F7F4FCE0107960E941B
:10237000A309CE0107960E949B09CE0101960E94F7
:102380009B0909EA1BE061E975E0CE0107960E940E
:102390003E09BE016D5E7F4FCE0107960E94870801
:1023A000BC01CE0101960E943509B801CE010D96FF
:1023B0000E943509BE016F5F7F4FCE010D960E94CE
:1023C000630CCE010D960E949B09CE0101960E94DE
:1023D0009B09CE0107960E949B090E9434020A5F66
:1023E0001F4F2BE00B3B120771F6CE0143960E9464
:1023F0009B098AEF9AE00E941503181619060CF043
:10240000F0C064E372E0CE0149960E943E090E944A
:10241000D50297FD2EC08A30910559F189831A8221
:1024200041E050E0BE016F5F7F4FCE0149960E94B0
:10243000CA06EDCF1092530A1092520A80910202FE
:10244000909103020196883191052CF49093030238
:1024500080930202ACCD109203021092020280918E
:102460000002909101020196909301028093000274
:102470009ECDCE0149960E947C07CE0149960E94CE
:10248000D9078D8D9E8D892B09F4A7C082EA95E02E
:102490000E943E076DEB75E0CE0101960E943E0959
:1024A000BE01675E7F4FCE0101960E9487080E94A1
:1024B0002B07CE0101960E949B096DEC75E0CE01C1
:1024C00001960E943E09BE016F5F7F4FCE01499683
:1024D0000E940B08182FCE0101960E949B09112320
:1024E00009F494C02D8D3E8D47E050E0BE01675E3B
:1024F0007F4FCE0143960E944F0950E040E06AE3CF
:10250000CE0143960E94EF078C01181619060CF0B5
:1025100060C09C0150E040E0BE016D5E7F4FCE0187
:1025200001960E944F09CE0101960E947107709397
:10253000030260930202CE0101960E949B092F893B
:10254000388DA8014F5F5F4FBE016D5E7F4FCE019A
:1025500001960E944F09CE0101960E9471076B01FE
:102560007093530A6093520ACE0101960E949B0910
:10257000B601CE0101960E94C508609102027091D9
:102580000302CE0107960E94C50865ED75E0CE01F5
:102590000D960E943E09BE01695F7F4FCE010D96E8
:1025A0000E94870860E677E00E947108BE016F5FB5
:1025B0007F4F0E9487080E942B07CE010D960E9434
:1025C0009B09CE0107960E949B09CE0101960E94AD
:1025D0009B09CE0143960E949B09CE0149960E9419
:1025E0009B098091500A9091510A8330910509F41A
:1025F0007EC2C8F58130910509F441C0029709F403
:1026000062C10E946A020E94C403A7CCBE01675E39
:102610007F4F8DE99BE00E941E0920E130E050E0F1
:1026200040E06DE97BE0CE0101960E944F0966EF24
:1026300075E0CE0107960E943E09BE016F5F7F4F95
:10264000CE0107960E94A309CE0107960E949B091E
:10265000CE0101960E949B0983E090E09093510A7D
:102660008093500ABACF8430910511F40C94CE1D9A
:10267000059739F61092510A1092500AC2CF67E9B5
:102680007BE0CE010D960E94350960E076E0CE0138
:1026900001960E943E0950E040E0BE016F5F7F4F0F
:1026A000CE010D960E9449056C01CE0101960E9453
:1026B0009B0966E076E0CE0101960E943E09A601E4
:1026C000BE016F5F7F4FCE010D960E9449050196B6
:1026D0007C01CE0101960E949B0966E076E0CE0166
:1026E00001960E943E09A701BE016F5F7F4FCE0198
:1026F0000D960E9449058C01CE0101960E949B090E
:1027000087E0E816F1040CF445C0E016F1060CF081
:1027100041C09801A701BE01635F7F4FCE010196C2
:102720000E944F09BE016F5F7F4F83EA9BE00E94CA
:102730002608CE0101960E949B09A8016AE0CE01FD
:102740000D960E94EF077C01A8016DE0CE010D9669
:102750000E94EF07F7FC23C097FD03C0E816F906B7
:102760000CF4C70129893A89AC014F5F5F4FBE0164
:10277000635F7F4FCE0101960E944F09BE016F5FDC
:102780007F4F8DE99BE00E942608CE0101960E94B2
:102790009B090DC01016110684F28601CECF97FF5B
:1027A000E1CF64E372E08DE99BE00E94BB0864E343
:1027B00072E0CE0101960E943E0968E076E0CE010B
:1027C00007960E943E09BE016F5F7F4FCE010796BC
:1027D0000E946505CE0107960E949B09CE010196D5
:1027E0000E949B0964E372E0CE0101960E943E09BB
:1027F00063E372E0CE0107960E943E09BE016F5F5F
:102800007F4FCE0107960E946505CE0107960E9474
:102810009B09CE0101960E949B098DE99BE00E94D5
:102820007C078DE99BE00E94D907CE010D960E949E
:102830009B096AE076E0CE0101960E943E0963EAB8
:102840007BE0CE0101960E9487080E942B07CE01F3
:1028500001960E949B0968E176E0CE0101960E94F4
:102860003E096DE97BE0CE0101960E9487080E9437
:102870002B07CE0101960E949B0920E130E050E039
:1028800040E06DE97BE0CE0101960E944F0966EFC2
:1028900075E0CE0107960E943E09BE016F5F7F4F33
:1028A000CE0107960E94A309CE0107960E949B09BC
:1028B000CE0101960E949B0982E090E09093510A1C
:1028C0008093500A9ECE63EA7BE0CE0101960E947F
:1028D0003509ED80FE80C980DA8009EA1BE0F80145
:1028E00084819581E816F906E9F460817181C1144B
:1028F000D10451F06115710549F5E114F10451F16C
:10290000F601808190E00CC06115710519F1E114A8
:10291000F10401F1FB01808190E09195819591098D
:10292000892BC1F00A5F1F4FFBE00B3B1F07B9F675
:1029300010E0CE0101960E949B09112369F086E206
:1029400096E00E943E0783E090E0B8CFC6010E9467
:102950000D21E6CF11E0EDCF6DE97BE0CE01499688
:102960000E94350963EA7BE0CE014F960E9435094B
:102970006091F5097091F6096F5F7F4F7093F609CA
:102980006093F509CE0101960E94C50863E476E0E4
:10299000CE0107960E943E09BE016F5F7F4FCE01B8
:1029A00007960E9487086CE173E00E9471080E94FC
:1029B0002B07CE0107960E949B09CE0101960E942B
:1029C0009B0961E676E0CE0101960E943E09BE01B8
:1029D000615E7F4FCE0101960E9487080E942B07FF
:1029E000CE0101960E949B096EE676E0CE0101962B
:1029F0000E943E09BE01675E7F4FCE0101960E9494
:102A000087080E942B07CE0101960E949B096091C6
:102A1000F5097091F609633071050CF440C0CE01E0
:102A200007960E94C5086BE776E0CE010D960E94DE
:102A30003E09BE01695F7F4FCE010D960E94870857
:102A40006DE876E00E947108BE01615E7F4F0E94D2
:102A50008708BC01CE0101960E94350969EA7BE036
:102A6000CE0143960E943509BE016F5F7F4FCE01B4
:102A700043960E94630CCE0143960E949B09CE01AF
:102A800001960E949B09CE010D960E949B09CE01E2
:102A900007960E949B091092F6091092F509CE0143
:102AA0004F960E949B09CE0149960E949B0920E106
:102AB00030E050E040E063EA7BE0CE0101960E9406
:102AC0004F0961EA76E0CE0107960E943E09BE01F9
:102AD0006F5F7F4FCE0107960E94A309CE01079634
:102AE0000E949B09CE0101960E949B09C3CD6DE90E
:102AF0007BE0CE01C1960E9435096EEA76E0CE01F8
:102B000001960E943E09BE016F5C7F4FCE01019687
:102B10000E9487080E942B07CE0101960E949B0904
:102B20006AEB76E0CE0101960E943E09BE016F5F1E
:102B30007F4FCE01C1960E940B08182FCE0101963F
:102B40000E949B09112309F443C18DA99EA90A97EC
:102B500008F43CC1E9A9FAA9309709F437C1818585
:102B6000082E000C990B8C0100531109C197049792
:102B700008F0B3C5C8010E94DA0BCE0149960E9445
:102B8000EC09B801CE0107960E94C50866E872E01C
:102B9000CE010D960E943E09BE01695F7F4FCE01B6
:102BA0000D960E94870864EC76E00E947108BE01D1
:102BB000675E7F4F0E948708BC01CE0101960E948C
:102BC000350963EA7BE0CE0143960E943509BE01D8
:102BD0006F5F7F4FCE0143960E94630CCE014396F8
:102BE0000E949B09CE0101960E949B09CE010D9681
:102BF0000E949B09CE0107960E949B09CE0149962F
:102C00000E949B09CE01C1960E949B090E9434023A
:102C10006EE577E0CE0143960E943E0980914C0A12
:102C20006AEE72E0811102C06DEE72E0CE01439651
:102C30000E94120762E677E0CE0143960E941207D7
:102C400080914D0A6AEE72E0811102C06DEE72E071
:102C5000CE0143960E94120766E677E0CE014396C6
:102C60000E94120780914E0A6AEE72E0811102C042
:102C70006DEE72E0CE0143960E9412076AE677E09D
:102C8000CE0143960E94120780914F0A60EF72E0D6
:102C9000811102C066E377E0CE0143960E941207DD
:102CA00064E372E0CE010D960E943E0980914A0ACB
:102CB00062EF72E0811102C064E377E0CE01019619
:102CC0000E943E096EE677E0CE0107960E943E091B
:102CD000BE016F5F7F4FCE0107960E9487086CEAA6
:102CE00077E00E947108BC01CE010D960E941E097A
:102CF000CE0107960E949B09CE0101960E949B0976
:102D000000910202109103020A30110534F46CE3C1
:102D100074E0CE010D960E941207B801CE0107960D
:102D20000E94C508BE01695F7F4FCE0101960E94D7
:102D3000350960E677E0CE0101960E947108BC017A
:102D4000CE010D960E94F606CE0101960E949B09C7
:102D5000CE0107960E949B090091520A1091530AD6
:102D60000A30110534F46CE374E0CE010D960E9434
:102D70001207B801CE0101960E94C508BE016F5F1F
:102D80007F4FCE010D960E94F606CE0101960E945D
:102D90009B090E94900480E00E943505BE016D5E93
:102DA0007F4F8BEB9BE00E94770281E00E9435050C
:102DB000BE01635F7F4F8BEB9BE00E947702CE01E9
:102DC0000D960E949B09CE0143968ECE80E0C8CE20
:102DD0006DEE76E0CE0101960E943E09BE016F5F66
:102DE0007F4FCE01C1960E940B08182FCE0101968D
:102DF0000E949B09112389F18DA99EA90A9758F178
:102E0000E9A9FAA9309739F18185082E000C990BB0
:102E10008C0100531109C197049708F05EC4C801E2
:102E20000E94520BCE0149960E94EC09B801CE01D6
:102E300007960E94C50866E872E0CE010D960E94D2
:102E40003E09BE01695F7F4FCE010D960E94870843
:102E500067EF76E0AACE80E0D8CF62E077E0CE01DF
:102E6000C1960E94FD06882309F460C060E083E2F9
:102E70000E94830181E080934A0A0E946A02609363
:102E8000F7097093F8098093F9099093FA098CE097
:102E900097E00E943E07CE0101960E94EC096CE08B
:102EA00077E0CE0107960E943E09BE016F5F7F4F1B
:102EB000CE0107960E94A309CE0107960E949B09A6
:102EC000CE0101960E949B09CE0107960E94EC0953
:102ED0006BE177E0CE010D960E943E09BE01695F6D
:102EE0007F4FCE010D960E948708BC01CE0101964E
:102EF0000E94350963EA7BE0CE0143960E943509C2
:102F0000BE016F5F7F4FCE0143960E94630CCE01DE
:102F100043960E949B09CE0101960E949B09CE0117
:102F20000D960E949B09CE0107966ACE6DE277E06E
:102F3000CE01C1960E94FD06882349F00E94940AA2
:102F4000CE0107960E94EC0968E377E0C3CF69E4FD
:102F500077E0CE01C1960E94FD06882309F401C3E3
:102F60006FE477E0CE018B960E943E0980914C0A77
:102F700066E972E0811102C06EE872E0CE0101964E
:102F80000E943E096EE577E0CE0107960E943E0959
:102F9000BE016F5F7F4FCE0107960E9487086CEAE3
:102FA00077E00E947108BC01CE018B960E94F60664
:102FB000CE0107960E949B09CE0101960E949B09B3
:102FC00080914D0A66E972E0811102C06EE872E0FC
:102FD000CE0101960E943E0962E677E0CE01079697
:102FE0000E943E09BE016F5F7F4FCE0107960E948F
:102FF000870863E372E00E947108BC01CE018B96E2
:103000000E94F606CE0107960E949B09CE0101960A
:103010000E949B0980914E0A66E972E0811102C00C
:103020006EE872E0CE0101960E943E0966E677E006
:10303000CE0107960E943E09BE016F5F7F4FCE0111
:1030400007960E9487086CEA77E00E947108BC012D
:10305000CE018B960E94F606CE0107960E949B0930
:10306000CE0101960E949B0980914F0A66E972E0A9
:10307000811102C06EE872E0CE0101960E943E0905
:103080006AE677E0CE0107960E943E09BE016F5FB7
:103090007F4FCE0107960E94870863E372E00E948B
:1030A0007108BC01CE018B960E94F606CE010796F0
:1030B0000E949B09CE0101960E949B0980914A0AB9
:1030C00069E077E0811102C064E377E0CE01019608
:1030D0000E943E096EE677E0CE0107960E943E0907
:1030E000BE016F5F7F4FCE0107960E94870863E3A2
:1030F00072E00E947108BC01CE018B960E94F60618
:10310000CE0107960E949B09CE0101960E949B0961
:103110006FE170E0CE0101960E94C50865E777E097
:10312000CE0107960E943E09BE016F5F7F4FCE0120
:1031300007960E9487086DE777E00E947108BC013E
:10314000CE018B960E94F606CE0107960E949B093F
:10315000CE0101960E949B096091FB097091FC09C8
:103160008091FD099091FE0920E13EE040E050E0B1
:103170000E94A81EBA01A901CE0101960E94F10881
:1031800062E877E0CE0107960E943E09BE016F5FBC
:103190007F4FCE0107960E9487086FE772E00E947A
:1031A0007108BC01CE018B960E94F606CE010796EF
:1031B0000E949B09CE0101960E949B096091FB0928
:1031C0007091FC098091FD099091FE0920E13EE09B
:1031D00040E050E00E94A81E2CE330E040E050E0C8
:1031E0000E94A81EBA01A901CE0107960E94F1080B
:1031F000BE01695F7F4FCE0101960E94350960E9EB
:1032000077E0CE0101960E947108BC01CE018B9639
:103210000E94F606CE0101960E949B09CE010796F8
:103220000E949B0965E977E0CE0185960E943E09E0
:103230000FEF19E0F12CCC24C394D12CF801B68403
:10324000BB2009F490C0B601CE0101960E94C508CA
:1032500064E479E0CE0107960E943E09BE016F5FEB
:103260007F4FCE0107960E94870864EA77E00E94AC
:103270007108BC01CE0185960E94F606CE01079624
:103280000E949B09CE0101960E949B09F801E784E8
:10329000F088FAE0EF16F10434F46CE374E0CE0148
:1032A00085960E941207B701CE0107960E94C508B5
:1032B000BE01695F7F4FCE0101960E94350960E62D
:1032C00077E0CE0101960E947108BC01CE0185967F
:1032D0000E94F606CE0101960E949B09CE01079638
:1032E0000E949B09F801818992890A9734F46CE362
:1032F00074E0CE0185960E941207F80163897489F3
:10330000CE0101960E94C508F80161897289CE013B
:103310000D960E94C508BE01635F7F4FCE010796E0
:103320000E94350966EA77E0CE0107960E9471088F
:10333000BE016F5F7F4F0E94870868EA77E00E94B6
:103340007108BC01CE0185960E94F606CE01079653
:103350000E949B09CE010D960E949B09CE01019609
:103360000E949B09FB2CFFEFCF1ADF0A025F1F4F61
:1033700025E0C216D10409F061CFFF2009F4EAC0AC
:10338000BE016B5D7F4FCE0107960E94350963E356
:1033900072E0CE0107960E947108BC01CE01019631
:1033A0000E943509BE016F5F7F4FCE018B960E9450
:1033B000F606CE0101960E949B09FF2021F0CE0166
:1033C00007960E949B09CE0101960E94EC09BE015E
:1033D0006F5F7F4FCE018B960E94F606CE0101965D
:1033E0000E949B096091520A7091530ACE01019686
:1033F0000E94C5088091520A9091530A0CE314E090
:103400000A9714F004E312E0609102027091030243
:10341000CE0107960E94C508809102029091030296
:103420006CE374E00A9714F064E372E0CE010D9649
:103430000E943E09BE01695F7F4FCE010D960E943A
:10344000870860E677E00E947108B8010E94710861
:10345000BE016F5F7F4F0E948708BC01CE014F966F
:103460000E943509CE010D960E949B09CE01079658
:103470000E949B09CE0101960E949B0964EC77E0B3
:10348000CE0107960E943E09BE01615E7F4FCE01CC
:1034900007960E948708BC01CE0101960E9435095B
:1034A0006FE170E0CE0143960E94C50865E777E0C2
:1034B000CE0149960E943E09BE016D5E7F4FCE014E
:1034C00049960E9487086FEC77E00E947108BC0162
:1034D000CE010D960E943509BE016F5F7F4FCE0170
:1034E0000D960E94A309CE010D960E949B09CE0164
:1034F00049960E949B09CE0143960E949B09CE01EA
:1035000001960E949B09CE0107960E949B09CE015D
:103510004F960E949B09BE01655D7F4FCE010196CB
:103520000E94350963EA7BE0CE0107960E943509C7
:10353000BE016F5F7F4FCE0107960E94630CCE01E4
:1035400007960E949B09CE0101960E949B09CE011D
:1035500085963EC16EEA77E0CE0101960E943E0953
:1035600021CF66E778E0CE01C1960E94FD06882350
:1035700009F442C081E08093490A0E946A02609384
:10358000450A7093460A8093470A9093480A63ED70
:1035900077E0CE0101960E943E0960EE77E0CE0111
:1035A00007960E943E09BE016F5F7F4FCE010796CE
:1035B0000E94A309CE0107960E949B09CE010196A5
:1035C0000E949B096DEE77E0CE0101960E943E09B4
:1035D00063EA7BE0CE0107960E943509BE016F5F6A
:1035E0007F4FCE0107960E94630CCE0107960E9482
:1035F0009B09CE01019604CB65E178E0CE01C1962E
:103600000E94FD06882309F440C08091490A88235E
:10361000C9F10E946A020091450A1091460A209160
:10362000470A3091480A601B710B820B930B60367E
:103630007A4E8105910530F50E9451071092490A92
:1036400063E278E0CE0101960E943E096FE278E0E5
:10365000CE0107960E943E09BE016F5F7F4FCE01EB
:1036600007960E94A309CE0107960E949B09CE01EE
:1036700001960E949B09CE0107960E94EC096DE31A
:1036800078E028CC66E578E09FCF6EE379E0CE0164
:1036900001960E943E09BE016F5F7F4FCE01C19629
:1036A0000E940B08182FCE0101960E949B0911233E
:1036B00009F42BC22DA93EA92830310588F0E9A9CB
:1036C000FAA9309769F08781082E000C990B8C01BC
:1036D00000531109C197049728F060ED76E074CF8C
:1036E00080E0F2CF49E050E0BE016F5C7F4FCE0139
:1036F0008B960E944F09CE018B960E947C0764E353
:1037000077E0CE018B960E94FD06882309F465C000
:103710008EE0809FF001819FF00D1124E150F64F63
:1037200010821782B801CE0101960E94C50865EA91
:1037300074E0CE0107960E943E09BE016F5F7F4F85
:10374000CE0107960E9487086CE778E00E94710816
:103750000E942B07CE0107960E949B09CE0101967D
:103760000E949B09B801CE0107960E94C50865E832
:1037700078E0CE010D960E943E09BE01695F7F4F41
:10378000CE010D960E9487086CE778E00E947108D0
:10379000BC01CE0101960E94350963EA7BE0CE01AF
:1037A00043960E943509BE016F5F7F4FCE0143965D
:1037B0000E94630CCE0143960E949B09CE010196A4
:1037C0000E949B09CE010D960E949B09CE0107968F
:1037D0000E949B09CE018B9613CA50E040E060E244
:1037E000CE018B960E94EF077C0197FF1AC065E916
:1037F00078E0CE0101960E943E0963EA7BE0CE01AB
:1038000007960E943509BE016F5F7F4FCE01079674
:103810000E94630CCE0107960E949B09CE0101967F
:10382000D7CF9C0150E040E0BE01655D7F4FCE01E7
:1038300085960E944F092FA538A9A7014F5F5F4FBA
:10384000BE01655D7F4FCE0101960E944F09CE01FA
:1038500001960E9471076B01CE0101960E949B099F
:1038600050E040E06AE3CE0185960E94EF074C01EC
:1038700097FD03C01C141D043CF065E978E0CE01FF
:1038800001960E943E094ECE9C0150E040E0BE01F0
:103890006B5D7F4FCE0101960E944F09CE010196CC
:1038A0000E9471072B01CE0101960E949B0929A558
:1038B0003AA5A4014F5F5F4FBE016B5D7F4FCE0104
:1038C00001960E944F09CE0101960E9471074B019B
:1038D000CE0101960E949B09F8E14F16510420F495
:1038E0002CE38216910418F060EC78E0C8CF8EE0EB
:1038F000809FF001819FF00D1124E150F64F81E08F
:1039000080835282418294828382D682C5821782CA
:103910008FEF9FEF95878487B601CE0101960E94B5
:10392000C508B801CE0107960E94C50865EA74E093
:10393000CE010D960E943E09BE01695F7F4FCE0108
:103940000D960E94870863EF78E00E947108BE011F
:103950006B5D7F4F0E94870863E079E00E947108E9
:10396000BE016F5F7F4F0E94870862E872E00E948D
:1039700071080E942B07CE010D960E949B09CE0173
:1039800007960E949B09CE0101960E949B09B601F1
:10399000CE0107960E94C508BE016B5D7F4FCE0128
:1039A0000D960E9435096CEA77E0CE010D960E94D3
:1039B0007108BE01695F7F4F0E94870862E872E06C
:1039C0000E947108BC01CE0101960E943509B80120
:1039D000CE0149960E94C5086FE379E0CE014F966B
:1039E0000E943E09BE01675E7F4FCE014F960E9446
:1039F00087086BE079E00E947108BC01CE01439614
:103A00000E943509BE016F5F7F4FCE0143960E9431
:103A1000A309CE0143960E949B09CE014F960E94B6
:103A20009B09CE0149960E949B09CE0101960E94F6
:103A30009B09CE010D960E949B09CE0107960E941C
:103A40009B09B801CE0107960E94C508B601CE01B8
:103A50000D960E94C508B801CE0143960E94C50884
:103A600065EA74E0CE0149960E943E09BE016D5E92
:103A70007F4FCE0149960E94870863EF78E00E944D
:103A80007108BE016B5D7F4F0E94870863E079E09B
:103A90000E947108BE01635F7F4F0E9487086FE03C
:103AA00079E00E947108BE01695F7F4F0E9487081C
:103AB00063E377E00E947108BC01CE0101960E9489
:103AC000350963EA7BE0CE014F960E943509BE01BD
:103AD0006F5F7F4FCE014F960E94630CCE014F96D1
:103AE0000E949B09CE0101960E949B09CE01499636
:103AF0000E949B09CE0143960E949B09CE010D9620
:103B00000E949B09CE01079620CD69EA79E0CE019B
:103B1000C1960E94FD0666E479E0811155CD6FEAF9
:103B200079E0CE0101960E943E09BE016F5C7F4F95
:103B3000CE0101960E9487080E942B07CE010196B4
:103B40000E949B0963EC79E0CE0107960E943E0932
:103B5000BE016F5C7F4FCE0107960E948708BC01B3
:103B6000CE0101960E94350963EA7BE0CE010D96F5
:103B70000E943509BE016F5F7F4FCE010D960E94F6
:103B8000630CCE010D960E949B09CE0101960E9406
:103B90009B09CE0107960E949B0934C86BED79E022
:103BA000CE0107960E943E096CE079E0CE010196B5
:103BB0000E943E09CE0101960E949B09CE01079604
:103BC0000C94741587E99BE00E949B098DE99BE0AA
:103BD0000E949B0983EA9BE00E949B0985EB9BE086
:103BE0000E949B098FEA9BE00E949B0989EA9BE067
:103BF0000C949B091F93FC0199278827BC01E8942A
:103C000011911032E9F3193010F01E30C8F31B3255
:103C100051F01D3249F4689406C00E942C1E610FB9
:103C2000711D811D911D119110531A30B0F33EF496
:103C300090958095709561957F4F8F4F9F4F1F9105
:103C40000895BB274A3031F4992322F4BDE29095C0
:103C500081959F4F0C94641E592F482F372F262F84
:103C6000660F771F881F991F660F771F881F991F80
:103C7000620F731F841F951F660F771F881F991F80
:103C80000895BB27FA01A62F6217710581059105DA
:103C9000330B30FB66F0AA27660F771F881F991F2A
:103CA000AA1FA21710F0A21B63953850A9F7A05DB8
:103CB000AA3308F0A95DA19336F7B111B193108230
:103CC000CA010C94861EBB27FB015527AA27880F23
:103CD000991FAA1FA41710F0A41B83955051B9F780
:103CE000A05DAA3308F0A95DA193009779F7B111FF
:103CF000B1931192CB010C94861E91110C94961ED7
:103D0000803219F089508550C8F70895DC01FC0114
:103D1000672F71917723E1F7329704C07C916D93FF
:103D200070836291AE17BF07C8F30895992788275B
:103D30000895A29FB001B39FC001A39F700D811D84
:103D40001124911DB29F700D811D1124911D0895A4
:103D5000A1E21A2EAA1BBB1BFD010DC0AA1FBB1F8F
:103D6000EE1FFF1FA217B307E407F50720F0A21B01
:103D7000B30BE40BF50B661F771F881F991F1A946E
:103D800069F760957095809590959B01AC01BD0198
:103D9000CF010895EE0FFF1F881F8BBF0790F6918C
:103DA000E02D19940E94991EB7FF0895821B930B72
:103DB00008950F931F93CF93DF938230910510F4F2
:103DC00082E090E0E091D50BF091D60B30E020E05E
:103DD000B0E0A0E0309799F42115310509F44AC00C
:103DE000281B390B24303105D8F58A819B81611558
:103DF000710589F1FB0193838283FE0111C040812B
:103E000051810281138148175907E0F0481759077B
:103E100099F4109761F012960C93129713961C93D5
:103E20003296CF01DF91CF911F910F9108950093AA
:103E3000D50B1093D60BF4CF2115310551F0421755
:103E4000530738F0A901DB019A01BD01DF01F80138
:103E5000C1CFEF01F9CF9093D60B8093D50BCDCF87
:103E6000FE01E20FF31F81939193225031093983B0
:103E70002883D7CF2091D30B3091D40B232B41F43F
:103E800020910602309107023093D40B2093D30B7C
:103E900020910402309105022115310541F42DB71E
:103EA0003EB74091080250910902241B350BE09166
:103EB000D30BF091D40BE217F307A0F42E1B3F0BAA
:103EC0002817390778F0AC014E5F5F4F241735078C
:103ED00048F04E0F5F1F5093D40B4093D30B819348
:103EE00091939FCFF0E0E0E09CCFCF93DF930097DA
:103EF000E9F0FC01329713821282A091D50BB091A8
:103F0000D60BED0130E020E01097A1F42081318143
:103F1000820F931F2091D30B3091D40B28173907B0
:103F200009F061C0F093D40BE093D30BDF91CF91F4
:103F30000895EA01CE17DF07E8F54A815B819E010B
:103F400041155105B1F7E901FB83EA834991599184
:103F5000C40FD51FEC17FD0761F480819181029693
:103F6000840F951FE90199838883828193819B83C4
:103F70008A83F0E0E0E012968D919C911397009770
:103F8000B9F52D913C911197CD010296820F931FA7
:103F90002091D30B3091D40B2817390739F630977D
:103FA00051F51092D60B1092D50BB093D40BA09371
:103FB000D30BBCCFD383C28340815181840F951F23
:103FC000C817D90761F44E5F5F4F88819981480F08
:103FD000591F518340838A819B819383828321155A
:103FE000310509F0B0CFF093D60BE093D50B9ECFFF
:103FF000FD01DC01C0CF13821282D7CF4F925F92B6
:104000006F927F928F929F92AF92BF92CF92DF92E8
:10401000EF92FF920F931F93CF93DF938C01009742
:1040200099F4CB01DF91CF911F910F91FF90EF9009
:10403000DF90CF90BF90AF909F908F907F906F90C8
:104040005F904F900C94D91EFC01E60FF71F9C0166
:1040500022503109E217F30708F4AEC0D901CD911F
:10406000DC911197C617D70720F1C530D10578F03C
:10407000CE0104978617970750F0C61BD70B2297DF
:10408000C193D1936D937C93CF010E94751FC8019A
:10409000DF91CF911F910F91FF90EF90DF90CF9024
:1040A000BF90AF909F908F907F906F905F904F9058
:1040B00008955B01AC1ABD0A4C018C0E9D1EA091A7
:1040C000D50BB091D60B512C412CF12CE12C109733
:1040D00031F58091D30B9091D40B8815990509F097
:1040E0005CC04616570608F058C0809104029091B3
:1040F0000502009741F48DB79EB740910802509198
:104100000902841B950BE817F90708F055C0F093D6
:10411000D40BE093D30BF90171836083B8CF8D91F9
:104120009C91119712966C90129713967C9013970E
:10413000A815B90559F56C0142E0C40ED11CCA148A
:10414000DB0420F1AC014A195B09DA0112961597DC
:1041500080F06282738251834083D9016D937C9396
:10416000E114F10471F0D7011396FC93EE931297CA
:104170008ECF22968C0F9D1FF90191838083F301CE
:10418000EFCFF093D60BE093D50B81CF48165906AD
:1041900008F42C017D01D3019ACFCB010E94D91ED6
:1041A0007C01009749F0AE01B8010E94E720C801E8
:1041B0000E94751F87016BCF10E000E068CF91115E
:1041C000089581568A5108F4805285580895FB015C
:1041D000DC0102C001900D9241505040D8F7089583
:1041E0006817790768F4FB01DC01E40FF51FA40FE1
:1041F000B51F02C002900E9241505040D8F708956A
:104200000C94E720FC018191861721F08823D9F7CF
:10421000992708953197CF010895FB01DC018D9115
:10422000019080190110D9F3990B0895FB01DC016D
:1042300001900D920020E1F70895FB01DC0141504F
:10424000504030F08D910190801919F40020B9F799
:10425000881B990B0895FB0151915523A9F0BF01CB
:10426000DC014D9145174111E1F759F4CD01019061
:10427000002049F04D9140154111C9F3FB01411156
:10428000EFCF81E090E00197089511E0C0E3D1E025
:1042900000E006C0802FFE010E94CA1E2196011D6B
:0E42A000C133D10780E00807A9F7F894FFCFDB
:1042AE00010006000000D70B800000001C001D005E
:1042BE00250024000000000057038502B202A4036B
:1042CE001503C10207030000000043058502F10338
:1042DE0076020D0A00544F5554455320534F5254F5
:1042EE00494553204645524D4545530020286865A3
:1042FE007572652073696D756C65652C206A6F75B6
:10430E00722000506F6D70652041525245544545E4
:10431E0000546F74616C20706F6D70653A20006888
:10432E0020006D696E0056616E6E65200020464558
:10433E00524D454500204F55564552544500456E49
:10434E00766F6920534D53206120003E3E3E205B28
:10435E00534D5320454E564F5945204120005D2068
:10436E003A20002B3231363230313233343536008A
:10437E002B3231363535393837363534002B32312C
:10438E00363938313131323232004F20004620007A
:10439E004F004F4E20003D3D3D20455A5A41595247
:1043AE00412049727269676174696F6E2047534D7F
:1043BE00202D2044656D617272616765203D3D3D23
:1043CE0000455A5A4159524120534F4C5554494F6A
:1043DE004E530044656D6172726167652E2E2E001C
:1043EE0053656375726974653A20746F757465737D
:1043FE00206C657320736F727469657320666572C5
:10440E006D65657300417474656E746520534D530C
:10441E002E2E2E0053797374656D6520707265743F
:10442E00005B44454D4F5D204D6F64652064656DA6
:10443E006F6E7374726174696F6E206163746966F6
:10444E002E005B44454D4F5D20546170657A207699
:10445E006F74726520636F6D6D616E64652064614B
:10446E006E73206C612062617272652063692D64C7
:10447E006573737573202845783A20234F5556522D
:10448E00495220563129005B44454D4F5D20486FFF
:10449E00726C6F67652073696D756C6565203A2067
:1044AE0031206D696E2073696D756C656520746F52
:1044BE0075746573206C657320006D73207265656D
:1044CE006C6C65732E20486575726520646520647A
:1044DE006570617274203A2030363A3030005B4499
:1044EE00454D4F5D205574696C6973657A2023487C
:1044FE00455552452068683A6D6D20706F75722073
:10450E00666F72636572206C2768657572652073BD
:10451E00696D756C65652E0053797374656D6520D4
:10452E00707265742E20456E20617474656E7465AC
:10453E0020646520636F6D6D616E64657320534DED
:10454E00532E2E2E0050726F67205600203A206692
:10455E0065726D6574757265206175746F6D6174C9
:10456E0069717565202864757265652065636F7560
:10457E006C65652900206665726D656520617574D0
:10458E006F6D6174697175656D656E7420286669ED
:10459E006E2070726F6772616D6D6174696F6E29D6
:1045AE00202D2000203A206465636C656E6368657B
:1045BE006D656E74206175746F6D6174697175656A
:1045CE0000206F757665727465206175746F6D610C
:1045DE0074697175656D656E74202870726F67727F
:1045EE00616D6D6174696F6E29202D2000534543F6
:1045FE0055524954453A206475726565206D61784F
:10460E0020706F6D706520646570617373656500F1
:10461E00506F6D706520617272657465652061758D
:10462E00746F202D20316820646570617373656529
:10463E0000414C455254453A2000414C4552544598
:10464E0021000A2D2D2D205B534D532053494D55DE
:10465E004C4520524543555D202D2D2D00436F6E48
:10466E0074656E752074617065203A20002348458C
:10467E0055524520005B44454D4F5D20486F726C8E
:10468E006F67652073696D756C656520666F726303
:10469E00656520612000534D5320726563753A00A5
:1046AE002B434D543A0022000D0045787065646925
:1046BE0074657572203A2000436F6E74656E7520B6
:1046CE002020203A20004E756D65726F2061757442
:1046DE006F72697365202D3E206578656375746908
:1046EE006F6E003D3D3D2054454E54415449564554
:1046FE00204E4F4E204155544F524953454520238D
:10470E000020204E756D65726F20203A200020200B
:10471E00436F6D6D616E64653A2000414C45525495
:10472E00452053454355524954453A20002074655F
:10473E006E74617469766573206465707569732033
:10474E000041434345532052454655534500457855
:10475E0065637574696F6E3A2000234F5556524942
:10476E0052205600206F757665727465202D2000DC
:10477E004552524555523A2076616E6E6520696EED
:10478E0076616C6964652028312D342900234645F5
:10479E00524D4552205600206665726D6565202D7E
:1047AE00200023504F4D5045204F4E00506F6D70DE
:1047BE00652044454D415252454500506F6D706520
:1047CE002064656D6172726565202D200023504F47
:1047DE004D5045204F464600506F6D7065206172FA
:1047EE007265746565202D200023455441540045A3
:1047FE005441542053595354454D453A0A005631AD
:10480E003A0056323A0056333A0056343A00504F78
:10481E004D50453A005369676E616C3A002F333143
:10482E000A00506F6D706520746F74616C3A2000D1
:10483E006D696E0A0050726F6720616374697665E8
:10484E00733A2000400028006D696E2920005072D6
:10485E006F6720616374697665733A20617563755D
:10486E006E650A0048657572652073696D3A002F92
:10487E00333100436F6E6669726D657A2E2E2E008F
:10488E0053544F502064656D616E646500415454FD
:10489E00454E54494F4E3A20746170657A20235329
:1048AE00544F5020434F4E4649524D2064616E7313
:1048BE0020363073002353544F5020434F4E4649F9
:1048CE00524D00546F7574206665726D65210041FE
:1048DE005252455420555247454E4345004152527F
:1048EE00455420555247454E4345206578656375BE
:1048FE007465202D20004552524555523A2064656C
:10490E006C616920646570617373652E2052656EEB
:10491E00766F79657A202353544F500020616E6E66
:10492E00756C65650050726F6772616D6D6174694B
:10493E006F6E2056004552524555523A20666F72A0
:10494E006D61742E204578656D706C653A2023502C
:10495E00524F472056312030363A33302032300015
:10496E004552524555523A20686575726520696EFA
:10497E0076616C6964652E204578656D706C653A5C
:10498E00202350524F472056312030363A333020B4
:10499E0032300020656E72656769737472656520CA
:1049AE006120002064757265652000204F4B006DFC
:1049BE00696E202D2073657261206578656375744C
:1049CE00656520636861717565206A6F75722E204A
:1049DE00506F757220616E6E756C65723A20235041
:1049EE00524F47205600434F4D4D414E4445533A8A
:1049FE000A234F55565249522056312E2E56340AFE
:104A0E00234645524D45522056312E2E56340A23FA
:104A1E00504F4D5045204F4E2F4F46460A23505271
:104A2E004F472056782068683A6D6D206D696E0A82
:104A3E002350524F47205678204F46460A2345545E
:104A4E0041540A2353544F500A23414944450043CD
:104A5E006F6D6D616E646520696E636F6E6E7565E8
:104A6E003A2000436F6D6D616E6465206E6F6E202F
:104A7E007265636F6E6E75653A200041542B434D1F
:084A8E0047443D312C340000C7
:00000001FF
